{
  "_format": "hh-sol-artifact-1",
  "contractName": "funfund",
  "sourceName": "contracts/funfund.sol",
  "abi": [
    {
      "inputs": [],
      "stateMutability": "nonpayable",
      "type": "constructor"
    },
    {
      "inputs": [],
      "name": "campaignID",
      "outputs": [
        {
          "internalType": "uint256",
          "name": "",
          "type": "uint256"
        }
      ],
      "stateMutability": "view",
      "type": "function"
    },
    {
      "inputs": [
        {
          "internalType": "uint256",
          "name": "",
          "type": "uint256"
        }
      ],
      "name": "campaigns",
      "outputs": [
        {
          "internalType": "uint256",
          "name": "id",
          "type": "uint256"
        },
        {
          "internalType": "address",
          "name": "creator",
          "type": "address"
        },
        {
          "internalType": "string",
          "name": "title",
          "type": "string"
        },
        {
          "internalType": "string",
          "name": "desc",
          "type": "string"
        },
        {
          "internalType": "string",
          "name": "img",
          "type": "string"
        },
        {
          "internalType": "uint256",
          "name": "goal",
          "type": "uint256"
        },
        {
          "internalType": "uint256",
          "name": "endAt",
          "type": "uint256"
        },
        {
          "internalType": "enum funfund.Status",
          "name": "_status",
          "type": "uint8"
        },
        {
          "internalType": "uint256",
          "name": "amountCollected",
          "type": "uint256"
        }
      ],
      "stateMutability": "view",
      "type": "function"
    },
    {
      "inputs": [
        {
          "internalType": "string",
          "name": "_title",
          "type": "string"
        },
        {
          "internalType": "string",
          "name": "_desc",
          "type": "string"
        },
        {
          "internalType": "string",
          "name": "_img",
          "type": "string"
        },
        {
          "internalType": "uint256",
          "name": "_goal",
          "type": "uint256"
        },
        {
          "internalType": "uint256",
          "name": "_endAt",
          "type": "uint256"
        }
      ],
      "name": "createCampaign",
      "outputs": [],
      "stateMutability": "nonpayable",
      "type": "function"
    },
    {
      "inputs": [
        {
          "internalType": "uint256",
          "name": "_id",
          "type": "uint256"
        }
      ],
      "name": "deleteCampaigns",
      "outputs": [],
      "stateMutability": "nonpayable",
      "type": "function"
    },
    {
      "inputs": [
        {
          "internalType": "uint256",
          "name": "_id",
          "type": "uint256"
        }
      ],
      "name": "donateCampaign",
      "outputs": [],
      "stateMutability": "payable",
      "type": "function"
    },
    {
      "inputs": [
        {
          "internalType": "uint256",
          "name": "_id",
          "type": "uint256"
        },
        {
          "internalType": "enum funfund.Status",
          "name": "_newStatus",
          "type": "uint8"
        }
      ],
      "name": "externalChangeStatus",
      "outputs": [],
      "stateMutability": "nonpayable",
      "type": "function"
    },
    {
      "inputs": [],
      "name": "getAllCampaigns",
      "outputs": [
        {
          "components": [
            {
              "internalType": "uint256",
              "name": "id",
              "type": "uint256"
            },
            {
              "internalType": "address",
              "name": "creator",
              "type": "address"
            },
            {
              "internalType": "string",
              "name": "title",
              "type": "string"
            },
            {
              "internalType": "string",
              "name": "desc",
              "type": "string"
            },
            {
              "internalType": "string",
              "name": "img",
              "type": "string"
            },
            {
              "internalType": "uint256",
              "name": "goal",
              "type": "uint256"
            },
            {
              "internalType": "uint256",
              "name": "endAt",
              "type": "uint256"
            },
            {
              "internalType": "enum funfund.Status",
              "name": "_status",
              "type": "uint8"
            },
            {
              "internalType": "address[]",
              "name": "donors",
              "type": "address[]"
            },
            {
              "internalType": "uint256[]",
              "name": "donorsContribution",
              "type": "uint256[]"
            },
            {
              "internalType": "uint256",
              "name": "amountCollected",
              "type": "uint256"
            }
          ],
          "internalType": "struct funfund.Campaign[]",
          "name": "",
          "type": "tuple[]"
        }
      ],
      "stateMutability": "view",
      "type": "function"
    },
    {
      "inputs": [
        {
          "internalType": "uint256",
          "name": "_id",
          "type": "uint256"
        }
      ],
      "name": "getCampaignDetails",
      "outputs": [
        {
          "internalType": "uint256",
          "name": "id",
          "type": "uint256"
        },
        {
          "internalType": "address",
          "name": "creator",
          "type": "address"
        },
        {
          "internalType": "string",
          "name": "title",
          "type": "string"
        },
        {
          "internalType": "string",
          "name": "desc",
          "type": "string"
        },
        {
          "internalType": "string",
          "name": "img",
          "type": "string"
        },
        {
          "internalType": "uint256",
          "name": "goal",
          "type": "uint256"
        },
        {
          "internalType": "uint256",
          "name": "endAt",
          "type": "uint256"
        },
        {
          "internalType": "enum funfund.Status",
          "name": "_status",
          "type": "uint8"
        },
        {
          "internalType": "address[]",
          "name": "donors",
          "type": "address[]"
        },
        {
          "internalType": "uint256[]",
          "name": "donorsContribution",
          "type": "uint256[]"
        },
        {
          "internalType": "uint256",
          "name": "amountCollected",
          "type": "uint256"
        }
      ],
      "stateMutability": "view",
      "type": "function"
    },
    {
      "inputs": [
        {
          "internalType": "uint256",
          "name": "_id",
          "type": "uint256"
        },
        {
          "internalType": "address",
          "name": "donors",
          "type": "address"
        }
      ],
      "name": "getContributionsByAddress",
      "outputs": [
        {
          "internalType": "uint256",
          "name": "",
          "type": "uint256"
        }
      ],
      "stateMutability": "view",
      "type": "function"
    },
    {
      "inputs": [
        {
          "internalType": "uint256",
          "name": "_id",
          "type": "uint256"
        }
      ],
      "name": "getTotalContributions",
      "outputs": [
        {
          "internalType": "uint256",
          "name": "",
          "type": "uint256"
        }
      ],
      "stateMutability": "view",
      "type": "function"
    }
  ],
  "bytecode": "0x60a0604052600060015534801561001557600080fd5b503373ffffffffffffffffffffffffffffffffffffffff1660808173ffffffffffffffffffffffffffffffffffffffff1681525050608051612b9361006c600039600081816105c8015261151d0152612b936000f3fe6080604052600436106100915760003560e01c806386cdf6041161005957806386cdf604146101a95780638ffff8b0146101d4578063980f2e66146101f0578063d993de6214610219578063e09468071461026057610091565b8063141961bc1461009657806318ea5fd6146100db57806320d2c6d61461011857806349ed2fa9146101415780635bd1baaf1461016c575b600080fd5b3480156100a257600080fd5b506100bd60048036038101906100b891906118b3565b610289565b6040516100d299989796959493929190611a37565b60405180910390f35b3480156100e757600080fd5b5061010260048036038101906100fd9190611b05565b6104ac565b60405161010f9190611b45565b60405180910390f35b34801561012457600080fd5b5061013f600480360381019061013a9190611b85565b6105a1565b005b34801561014d57600080fd5b506101566106bd565b6040516101639190611b45565b60405180910390f35b34801561017857600080fd5b50610193600480360381019061018e91906118b3565b6106c3565b6040516101a09190611b45565b60405180910390f35b3480156101b557600080fd5b506101be6106f1565b6040516101cb9190611f67565b60405180910390f35b6101ee60048036038101906101e991906118b3565b610aa6565b005b3480156101fc57600080fd5b50610217600480360381019061021291906120be565b610d8a565b005b34801561022557600080fd5b50610240600480360381019061023b91906118b3565b61114c565b6040516102579b9a9998979695949392919061226b565b60405180910390f35b34801561026c57600080fd5b50610287600480360381019061028291906118b3565b611486565b005b6000818154811061029957600080fd5b90600052602060002090600b02016000915090508060000154908060010160009054906101000a900473ffffffffffffffffffffffffffffffffffffffff16908060020180546102e890612368565b80601f016020809104026020016040519081016040528092919081815260200182805461031490612368565b80156103615780601f1061033657610100808354040283529160200191610361565b820191906000526020600020905b81548152906001019060200180831161034457829003601f168201915b50505050509080600301805461037690612368565b80601f01602080910402602001604051908101604052809291908181526020018280546103a290612368565b80156103ef5780601f106103c4576101008083540402835291602001916103ef565b820191906000526020600020905b8154815290600101906020018083116103d257829003601f168201915b50505050509080600401805461040490612368565b80601f016020809104026020016040519081016040528092919081815260200182805461043090612368565b801561047d5780601f106104525761010080835404028352916020019161047d565b820191906000526020600020905b81548152906001019060200180831161046057829003601f168201915b5050505050908060050154908060060154908060070160009054906101000a900460ff169080600a0154905089565b600080600084815481106104c3576104c2612399565b5b90600052602060002090600b020190506000805b8260080180549050811015610595578473ffffffffffffffffffffffffffffffffffffffff1683600801828154811061051357610512612399565b5b9060005260206000200160009054906101000a900473ffffffffffffffffffffffffffffffffffffffff1673ffffffffffffffffffffffffffffffffffffffff16036105885782600901818154811061056f5761056e612399565b5b90600052602060002001548261058591906123f7565b91505b80806001019150506104d7565b50809250505092915050565b60008083815481106105b6576105b5612399565b5b90600052602060002090600b020190507f000000000000000000000000000000000000000000000000000000000000000073ffffffffffffffffffffffffffffffffffffffff163373ffffffffffffffffffffffffffffffffffffffff16148061066f57508060010160009054906101000a900473ffffffffffffffffffffffffffffffffffffffff1673ffffffffffffffffffffffffffffffffffffffff163373ffffffffffffffffffffffffffffffffffffffff16145b6106ae576040517f08c379a00000000000000000000000000000000000000000000000000000000081526004016106a590612477565b60405180910390fd5b6106b883836115fa565b505050565b60015481565b60008082815481106106d8576106d7612399565b5b90600052602060002090600b0201600a01549050919050565b60606000805480602002602001604051908101604052809291908181526020016000905b82821015610a9d57838290600052602060002090600b020160405180610160016040529081600082015481526020016001820160009054906101000a900473ffffffffffffffffffffffffffffffffffffffff1673ffffffffffffffffffffffffffffffffffffffff1673ffffffffffffffffffffffffffffffffffffffff1681526020016002820180546107a990612368565b80601f01602080910402602001604051908101604052809291908181526020018280546107d590612368565b80156108225780601f106107f757610100808354040283529160200191610822565b820191906000526020600020905b81548152906001019060200180831161080557829003601f168201915b5050505050815260200160038201805461083b90612368565b80601f016020809104026020016040519081016040528092919081815260200182805461086790612368565b80156108b45780601f10610889576101008083540402835291602001916108b4565b820191906000526020600020905b81548152906001019060200180831161089757829003601f168201915b505050505081526020016004820180546108cd90612368565b80601f01602080910402602001604051908101604052809291908181526020018280546108f990612368565b80156109465780601f1061091b57610100808354040283529160200191610946565b820191906000526020600020905b81548152906001019060200180831161092957829003601f168201915b5050505050815260200160058201548152602001600682015481526020016007820160009054906101000a900460ff166002811115610988576109876119c0565b5b600281111561099a576109996119c0565b5b815260200160088201805480602002602001604051908101604052809291908181526020018280548015610a2357602002820191906000526020600020905b8160009054906101000a900473ffffffffffffffffffffffffffffffffffffffff1673ffffffffffffffffffffffffffffffffffffffff16815260200190600101908083116109d9575b5050505050815260200160098201805480602002602001604051908101604052809291908181526020018280548015610a7b57602002820191906000526020600020905b815481526020019060010190808311610a67575b50505050508152602001600a8201548152505081526020019060010190610715565b50505050905090565b60003411610ae9576040517f08c379a0000000000000000000000000000000000000000000000000000000008152600401610ae0906124e3565b60405180910390fd5b6000808281548110610afe57610afd612399565b5b90600052602060002090600b0201905060006002811115610b2257610b216119c0565b5b8160070160009054906101000a900460ff166002811115610b4657610b456119c0565b5b14610b86576040517f08c379a0000000000000000000000000000000000000000000000000000000008152600401610b7d9061254f565b60405180910390fd5b600081600a01548260050154610b9c919061256f565b9050803411610c555781600801339080600181540180825580915050600190039060005260206000200160009091909190916101000a81548173ffffffffffffffffffffffffffffffffffffffff021916908373ffffffffffffffffffffffffffffffffffffffff160217905550816009013490806001815401808255809150506001900390600052602060002001600090919091909150553482600a016000828254610c4991906123f7565b92505081905550610d6a565b60008134610c63919061256f565b90503373ffffffffffffffffffffffffffffffffffffffff166108fc829081150290604051600060405180830381858888f19350505050158015610cab573d6000803e3d6000fd5b5060008134610cba919061256f565b905083600801339080600181540180825580915050600190039060005260206000200160009091909190916101000a81548173ffffffffffffffffffffffffffffffffffffffff021916908373ffffffffffffffffffffffffffffffffffffffff160217905550836009018190806001815401808255809150506001900390600052602060002001600090919091909150558084600a016000828254610d6091906123f7565b9250508190555050505b816005015482600a015410610d8557610d848360026115fa565b5b505050565b6000855111610dce576040517f08c379a0000000000000000000000000000000000000000000000000000000008152600401610dc5906125ef565b60405180910390fd5b6000845111610e12576040517f08c379a0000000000000000000000000000000000000000000000000000000008152600401610e099061265b565b60405180910390fd5b6000835111610e56576040517f08c379a0000000000000000000000000000000000000000000000000000000008152600401610e4d906126c7565b60405180910390fd5b60008211610e99576040517f08c379a0000000000000000000000000000000000000000000000000000000008152600401610e9090612733565b60405180910390fd5b42811015610edc576040517f08c379a0000000000000000000000000000000000000000000000000000000008152600401610ed39061279f565b60405180910390fd5b600060405180610160016040528060016000815480929190610efd906127bf565b9190505581526020013373ffffffffffffffffffffffffffffffffffffffff16815260200187815260200186815260200185815260200184815260200183815260200160006002811115610f5457610f536119c0565b5b8152602001600067ffffffffffffffff811115610f7457610f73611f93565b5b604051908082528060200260200182016040528015610fa25781602001602082028036833780820191505090505b508152602001600067ffffffffffffffff811115610fc357610fc2611f93565b5b604051908082528060200260200182016040528015610ff15781602001602082028036833780820191505090505b508152602001600081525090806001815401808255809150506001900390600052602060002090600b02016000909190919091506000820151816000015560208201518160010160006101000a81548173ffffffffffffffffffffffffffffffffffffffff021916908373ffffffffffffffffffffffffffffffffffffffff160217905550604082015181600201908161108b91906129b3565b5060608201518160030190816110a191906129b3565b5060808201518160040190816110b791906129b3565b5060a0820151816005015560c0820151816006015560e08201518160070160006101000a81548160ff021916908360028111156110f7576110f66119c0565b5b0217905550610100820151816008019080519060200190611119929190611775565b506101208201518160090190805190602001906111379291906117ff565b5061014082015181600a015550505050505050565b6000806060806060600080600060608060008060008d8154811061117357611172612399565b5b90600052602060002090600b0201905080600001548160010160009054906101000a900473ffffffffffffffffffffffffffffffffffffffff16826002018360030184600401856005015486600601548760070160009054906101000a900460ff1688600801896009018a600a01548880546111ee90612368565b80601f016020809104026020016040519081016040528092919081815260200182805461121a90612368565b80156112675780601f1061123c57610100808354040283529160200191611267565b820191906000526020600020905b81548152906001019060200180831161124a57829003601f168201915b5050505050985087805461127a90612368565b80601f01602080910402602001604051908101604052809291908181526020018280546112a690612368565b80156112f35780601f106112c8576101008083540402835291602001916112f3565b820191906000526020600020905b8154815290600101906020018083116112d657829003601f168201915b5050505050975086805461130690612368565b80601f016020809104026020016040519081016040528092919081815260200182805461133290612368565b801561137f5780601f106113545761010080835404028352916020019161137f565b820191906000526020600020905b81548152906001019060200180831161136257829003601f168201915b505050505096508280548060200260200160405190810160405280929190818152602001828054801561140757602002820191906000526020600020905b8160009054906101000a900473ffffffffffffffffffffffffffffffffffffffff1673ffffffffffffffffffffffffffffffffffffffff16815260200190600101908083116113bd575b505050505092508180548060200260200160405190810160405280929190818152602001828054801561145957602002820191906000526020600020905b815481526020019060010190808311611445575b505050505091509b509b509b509b509b509b509b509b509b509b509b505091939597999b90929496989a50565b600080828154811061149b5761149a612399565b5b90600052602060002090600b020190503373ffffffffffffffffffffffffffffffffffffffff168160010160009054906101000a900473ffffffffffffffffffffffffffffffffffffffff1673ffffffffffffffffffffffffffffffffffffffff16148061155457503373ffffffffffffffffffffffffffffffffffffffff167f000000000000000000000000000000000000000000000000000000000000000073ffffffffffffffffffffffffffffffffffffffff16145b611593576040517f08c379a000000000000000000000000000000000000000000000000000000000815260040161158a90612ad1565b60405180910390fd5b80600601544210156115da576040517f08c379a00000000000000000000000000000000000000000000000000000000081526004016115d190612b3d565b60405180910390fd5b6115e78160000154611650565b6115f6816000015460016115fa565b5050565b600080838154811061160f5761160e612399565b5b90600052602060002090600b02019050818160070160006101000a81548160ff02191690836002811115611646576116456119c0565b5b0217905550505050565b600080828154811061166557611664612399565b5b90600052602060002090600b02019050600081600a015411156117715760005b816008018054905081101561176f5760008260080182815481106116ac576116ab612399565b5b9060005260206000200160009054906101000a900473ffffffffffffffffffffffffffffffffffffffff16905060008360090183815481106116f1576116f0612399565b5b906000526020600020015490508173ffffffffffffffffffffffffffffffffffffffff166108fc829081150290604051600060405180830381858888f19350505050158015611744573d6000803e3d6000fd5b508084600a016000828254611759919061256f565b9250508190555050508080600101915050611685565b505b5050565b8280548282559060005260206000209081019282156117ee579160200282015b828111156117ed5782518260006101000a81548173ffffffffffffffffffffffffffffffffffffffff021916908373ffffffffffffffffffffffffffffffffffffffff16021790555091602001919060010190611795565b5b5090506117fb919061184c565b5090565b82805482825590600052602060002090810192821561183b579160200282015b8281111561183a57825182559160200191906001019061181f565b5b509050611848919061184c565b5090565b5b8082111561186557600081600090555060010161184d565b5090565b6000604051905090565b600080fd5b600080fd5b6000819050919050565b6118908161187d565b811461189b57600080fd5b50565b6000813590506118ad81611887565b92915050565b6000602082840312156118c9576118c8611873565b5b60006118d78482850161189e565b91505092915050565b6118e98161187d565b82525050565b600073ffffffffffffffffffffffffffffffffffffffff82169050919050565b600061191a826118ef565b9050919050565b61192a8161190f565b82525050565b600081519050919050565b600082825260208201905092915050565b60005b8381101561196a57808201518184015260208101905061194f565b60008484015250505050565b6000601f19601f8301169050919050565b600061199282611930565b61199c818561193b565b93506119ac81856020860161194c565b6119b581611976565b840191505092915050565b7f4e487b7100000000000000000000000000000000000000000000000000000000600052602160045260246000fd5b60038110611a00576119ff6119c0565b5b50565b6000819050611a11826119ef565b919050565b6000611a2182611a03565b9050919050565b611a3181611a16565b82525050565b600061012082019050611a4d600083018c6118e0565b611a5a602083018b611921565b8181036040830152611a6c818a611987565b90508181036060830152611a808189611987565b90508181036080830152611a948188611987565b9050611aa360a08301876118e0565b611ab060c08301866118e0565b611abd60e0830185611a28565b611acb6101008301846118e0565b9a9950505050505050505050565b611ae28161190f565b8114611aed57600080fd5b50565b600081359050611aff81611ad9565b92915050565b60008060408385031215611b1c57611b1b611873565b5b6000611b2a8582860161189e565b9250506020611b3b85828601611af0565b9150509250929050565b6000602082019050611b5a60008301846118e0565b92915050565b60038110611b6d57600080fd5b50565b600081359050611b7f81611b60565b92915050565b60008060408385031215611b9c57611b9b611873565b5b6000611baa8582860161189e565b9250506020611bbb85828601611b70565b9150509250929050565b600081519050919050565b600082825260208201905092915050565b6000819050602082019050919050565b611bfa8161187d565b82525050565b611c098161190f565b82525050565b600082825260208201905092915050565b6000611c2b82611930565b611c358185611c0f565b9350611c4581856020860161194c565b611c4e81611976565b840191505092915050565b611c6281611a16565b82525050565b600081519050919050565b600082825260208201905092915050565b6000819050602082019050919050565b6000611ca08383611c00565b60208301905092915050565b6000602082019050919050565b6000611cc482611c68565b611cce8185611c73565b9350611cd983611c84565b8060005b83811015611d0a578151611cf18882611c94565b9750611cfc83611cac565b925050600181019050611cdd565b5085935050505092915050565b600081519050919050565b600082825260208201905092915050565b6000819050602082019050919050565b6000611d4f8383611bf1565b60208301905092915050565b6000602082019050919050565b6000611d7382611d17565b611d7d8185611d22565b9350611d8883611d33565b8060005b83811015611db9578151611da08882611d43565b9750611dab83611d5b565b925050600181019050611d8c565b5085935050505092915050565b600061016083016000830151611ddf6000860182611bf1565b506020830151611df26020860182611c00565b5060408301518482036040860152611e0a8282611c20565b91505060608301518482036060860152611e248282611c20565b91505060808301518482036080860152611e3e8282611c20565b91505060a0830151611e5360a0860182611bf1565b5060c0830151611e6660c0860182611bf1565b5060e0830151611e7960e0860182611c59565b50610100830151848203610100860152611e938282611cb9565b915050610120830151848203610120860152611eaf8282611d68565b915050610140830151611ec6610140860182611bf1565b508091505092915050565b6000611edd8383611dc6565b905092915050565b6000602082019050919050565b6000611efd82611bc5565b611f078185611bd0565b935083602082028501611f1985611be1565b8060005b85811015611f555784840389528151611f368582611ed1565b9450611f4183611ee5565b925060208a01995050600181019050611f1d565b50829750879550505050505092915050565b60006020820190508181036000830152611f818184611ef2565b905092915050565b600080fd5b600080fd5b7f4e487b7100000000000000000000000000000000000000000000000000000000600052604160045260246000fd5b611fcb82611976565b810181811067ffffffffffffffff82111715611fea57611fe9611f93565b5b80604052505050565b6000611ffd611869565b90506120098282611fc2565b919050565b600067ffffffffffffffff82111561202957612028611f93565b5b61203282611976565b9050602081019050919050565b82818337600083830152505050565b600061206161205c8461200e565b611ff3565b90508281526020810184848401111561207d5761207c611f8e565b5b61208884828561203f565b509392505050565b600082601f8301126120a5576120a4611f89565b5b81356120b584826020860161204e565b91505092915050565b600080600080600060a086880312156120da576120d9611873565b5b600086013567ffffffffffffffff8111156120f8576120f7611878565b5b61210488828901612090565b955050602086013567ffffffffffffffff81111561212557612124611878565b5b61213188828901612090565b945050604086013567ffffffffffffffff81111561215257612151611878565b5b61215e88828901612090565b935050606061216f8882890161189e565b92505060806121808882890161189e565b9150509295509295909350565b600082825260208201905092915050565b60006121a982611c68565b6121b3818561218d565b93506121be83611c84565b8060005b838110156121ef5781516121d68882611c94565b97506121e183611cac565b9250506001810190506121c2565b5085935050505092915050565b600082825260208201905092915050565b600061221882611d17565b61222281856121fc565b935061222d83611d33565b8060005b8381101561225e5781516122458882611d43565b975061225083611d5b565b925050600181019050612231565b5085935050505092915050565b600061016082019050612281600083018e6118e0565b61228e602083018d611921565b81810360408301526122a0818c611987565b905081810360608301526122b4818b611987565b905081810360808301526122c8818a611987565b90506122d760a08301896118e0565b6122e460c08301886118e0565b6122f160e0830187611a28565b818103610100830152612304818661219e565b9050818103610120830152612319818561220d565b90506123296101408301846118e0565b9c9b505050505050505050505050565b7f4e487b7100000000000000000000000000000000000000000000000000000000600052602260045260246000fd5b6000600282049050600182168061238057607f821691505b60208210810361239357612392612339565b5b50919050565b7f4e487b7100000000000000000000000000000000000000000000000000000000600052603260045260246000fd5b7f4e487b7100000000000000000000000000000000000000000000000000000000600052601160045260246000fd5b60006124028261187d565b915061240d8361187d565b9250828201905080821115612425576124246123c8565b5b92915050565b7f4e6f7420617574686f72697a6564000000000000000000000000000000000000600082015250565b6000612461600e8361193b565b915061246c8261242b565b602082019050919050565b6000602082019050818103600083015261249081612454565b9050919050565b7f446f6e6174696f6e20616d6f756e74203e203000000000000000000000000000600082015250565b60006124cd60138361193b565b91506124d882612497565b602082019050919050565b600060208201905081810360008301526124fc816124c0565b9050919050565b7f4e6f742041637469766500000000000000000000000000000000000000000000600082015250565b6000612539600a8361193b565b915061254482612503565b602082019050919050565b600060208201905081810360008301526125688161252c565b9050919050565b600061257a8261187d565b91506125858361187d565b925082820390508181111561259d5761259c6123c8565b5b92915050565b7f5469746c65206d757374206e6f7420626520656d707479000000000000000000600082015250565b60006125d960178361193b565b91506125e4826125a3565b602082019050919050565b60006020820190508181036000830152612608816125cc565b9050919050565b7f4465736372697074696f6e206d757374206e6f7420626520656d707479000000600082015250565b6000612645601d8361193b565b91506126508261260f565b602082019050919050565b6000602082019050818103600083015261267481612638565b9050919050565b7f496d61676520555249206d757374206e6f7420626520656d7074790000000000600082015250565b60006126b1601b8361193b565b91506126bc8261267b565b602082019050919050565b600060208201905081810360008301526126e0816126a4565b9050919050565b7f476f616c203e207a65726f000000000000000000000000000000000000000000600082015250565b600061271d600b8361193b565b9150612728826126e7565b602082019050919050565b6000602082019050818103600083015261274c81612710565b9050919050565b7f456e64732074696d65203e206e6f770000000000000000000000000000000000600082015250565b6000612789600f8361193b565b915061279482612753565b602082019050919050565b600060208201905081810360008301526127b88161277c565b9050919050565b60006127ca8261187d565b91507fffffffffffffffffffffffffffffffffffffffffffffffffffffffffffffffff82036127fc576127fb6123c8565b5b600182019050919050565b60008190508160005260206000209050919050565b60006020601f8301049050919050565b600082821b905092915050565b6000600883026128697fffffffffffffffffffffffffffffffffffffffffffffffffffffffffffffffff8261282c565b612873868361282c565b95508019841693508086168417925050509392505050565b6000819050919050565b60006128b06128ab6128a68461187d565b61288b565b61187d565b9050919050565b6000819050919050565b6128ca83612895565b6128de6128d6826128b7565b848454612839565b825550505050565b600090565b6128f36128e6565b6128fe8184846128c1565b505050565b5b81811015612922576129176000826128eb565b600181019050612904565b5050565b601f8211156129675761293881612807565b6129418461281c565b81016020851015612950578190505b61296461295c8561281c565b830182612903565b50505b505050565b600082821c905092915050565b600061298a6000198460080261296c565b1980831691505092915050565b60006129a38383612979565b9150826002028217905092915050565b6129bc82611930565b67ffffffffffffffff8111156129d5576129d4611f93565b5b6129df8254612368565b6129ea828285612926565b600060209050601f831160018114612a1d5760008415612a0b578287015190505b612a158582612997565b865550612a7d565b601f198416612a2b86612807565b60005b82811015612a5357848901518255600182019150602085019450602081019050612a2e565b86831015612a705784890151612a6c601f891682612979565b8355505b6001600288020188555050505b505050505050565b7f6e6f74206f776e6572206f722063726561746f72000000000000000000000000600082015250565b6000612abb60148361193b565b9150612ac682612a85565b602082019050919050565b60006020820190508181036000830152612aea81612aae565b9050919050565b7f6e6f742066696e69736865640000000000000000000000000000000000000000600082015250565b6000612b27600c8361193b565b9150612b3282612af1565b602082019050919050565b60006020820190508181036000830152612b5681612b1a565b905091905056fea264697066735822122093247af11ad929e39bba5e51e04d8a24ff2440f29b0aa7b3e6af6b04647b8f8064736f6c63430008180033",
  "linkReferences": {},
  "deployedLinkReferences": {}
}